:020000040800F2
:10000000FCFF0020C91F0000C11F0000C11F00002D
:10001000C11F0000C11F0000C11F0000C11F000060
:10002000C11F0000C11F0000C11F0000C11F000050
:10003000C11F0000C11F0000C11F0000C11F000040
:10004000C11F0000C11F0000C11F0000C11F000030
:10005000C11F0000C11F0000C11F0000C11F000020
:10006000C11F0000C11F0000C11F0000C11F000010
:10007000C11F0000C11F0000C11F0000C11F000000
:10008000C11F0000C11F0000C11F0000C11F0000F0
:10009000C11F0000C11F0000C11F0000C11F0000E0
:1000A000C11F0000C11F0000C11F0000C11F0000D0
:1000B000C11F0000C11F0000C11F0000C11F0000C0
:1000C000C11F0000C11F0000C11F0000C11F0000B0
:1000D000C11F0000C11F0000C11F0000C11F0000A0
:1000E000C11F0000C11F0000C11F0000C11F000090
:1000F000C11F0000C11F0000C11F0000C11F000080
:10010000C11F0000C11F0000C11F0000C11F00006F
:10011000C11F0000C11F0000C11F0000C11F00005F
:10012000C11F0000C11F0000C11F0000C11F00004F
:10013000C11F0000C11F0000C11F0000C11F00003F
:10014000C11F0000C11F0000C11F0000C11F00002F
:1001500081B000F214010A6800F21801096809046C
:1001600042EA0101084601B07047FFFF81B000F28A
:1001700018010A68C2F3400181F00101C9B2C8B296
:1001800001B0704701480068704700BFD0000020F0
:1001900083B0CDF800E000F0FF031A09104603F029
:1001A0000F02134614E0194A02921FE0184A029205
:1001B0001CE0184A029219E0174A029216E0174A08
:1001C000029213E0164A029210E0164A02920DE0E3
:1001D0000028E8D00128E9D00228EAD00328EBD093
:1001E0000428ECD00528EDD00628EED0012212B26A
:1001F0009A40ADF8042002980A46BDF8041000F0B9
:10020000D9FBDDF800E003B0704700BF00080140F3
:10021000000C014000100140001401400018014092
:10022000001C01400020014081B0CDF800E04FF0FB
:1002300000021949884207D118490B6818490A6811
:1002400018490A601C460BE01749884207D1174934
:100250000B6817490A6813490A601C4600E01446F7
:1002600014490C6003461846FFF780FF70B9114926
:10027000096851B12CB905200A4C2468A047002018
:1002800005E0611E08460446FFE7ECE70120DDF8C3
:1002900000E001B0704700BF005400403C00002067
:1002A000D8000020D400002000580040400000206A
:1002B000DC0000204400002081B0CDF800E00B46B7
:1002C000FFF746FF00EA03029A4240F2000200D123
:1002D0000122D0B2DDF800E001B0704781B0CDF866
:1002E00000E0012252B23E490A6000F268010B6848
:1002F0006FF0006103EA0102144603F00061C90EC9
:100300000B4602F00041B1F1004F02D135490A68B5
:1003100001E035490A6804F47021090C0E464FF6D5
:10032000FF7104EA01010D4604F44011B1F5401FCC
:100330000DD16FF0706102EA01010E462A490A6888
:100340006FF070610A4028490A60324616E004F4F2
:100350008011B1F5801F09D14FF00301B140C943AD
:1003600002EA010141F070610A4607E0610D0901EE
:1003700005FA01F1C9430A4042F070622BB1610DE8
:10038000090105FA01F10A43FFE704F00041B1F168
:10039000004F02D113490A6001E013490A6040F29C
:1003A000000A81464FEA8A0109EB01010968B1F1AF
:1003B000FF3F10D009F134014FEA8A03C9180968D8
:1003C0000A4609EB0301096808461146FFF7E0FEFB
:1003D0000AF1010AE6E7DDF800E001B0704700BF6E
:1003E000000342421C0001400400014082B0CDF8ED
:1003F00000E0029E4FF00005564CA04206D1564C3C
:100400002768564C2568564C25600AE0554CA0429A
:1004100006D1554C2768554C2568514C256000E0A5
:100420002F46534C276000F210054C00A4B22C60FC
:10043000B9460746904635461E464E493846FFF7B0
:100440003BFF88B94A4C24686CB1B9F1000F06D162
:100450000420434C2468A0474FF6FF7076E0A9F1D2
:1004600001008146FFE7E8E700200197294637466B
:10047000019E7C1EA04226D206F2100508EB000465
:1004800024782C603A4CD4F8009082460D463A49C4
:100490003046FFF711FF88B9354C24686CB1B9F1CB
:1004A000000F06D104202E4C2468A0474FF6FF70A1
:1004B0004CE0A9F101008146FFE7E8E70AF10104F9
:1004C00020462946D5E706F2100508EB00042478FB
:1004D0002C60274C27680D4628493046FFF7ECFE74
:1004E00070B9234C246854B137B904201C4C2468DB
:1004F000A0474FF6FF7029E0781E0746FFE7EBE7BD
:10050000012D05D10125346865F3492434601CE0D0
:100510000125346865F308243460154C2768354696
:1005200017492846FFF7C8FE78B9114C24685CB11A
:1005300037B904200A4C2468A0474FF6FF7005E045
:100540007C1E20460746FFE7EAE70020DDF800E0D2
:1005500002B07047005400403C000020D80000204A
:10056000D40000200058004040000020DC000020A3
:10057000440000208200070080000700840007007C
:100580000100030082B0CDF800E003461946019156
:10059000FFF7F8FD40F2E83100FB01F201990A6033
:1005A0001F490978C1F30311C8B21E490918087818
:1005B000C0B21A1D1968C140116019490988C1F3F8
:1005C000022188B2174909180878C0B203F208025C
:1005D000191D0968C140116011490988C1F3C22180
:1005E00088B2104909180878C0B203F20C02191D2C
:1005F0000968C14011600A490988C1F3813188B294
:10060000094909180978C8B203F2100203F20C0173
:100610000968B1FBF0F11160DDF800E002B070474D
:100620000410024084230000DC19000081B002683D
:10063000C2F3401101B9FAE7011D096888B201B09F
:100640007047FFFF83B0CDF800E003464FF0000095
:1006500026498B4206D126490C6826490A68264954
:100660000A600BE025498B4207D1254908682549D6
:100670000A6821490A60044600E0044622490C60E9
:10068000019402931846FFF7CFFD029B019C10B91D
:100690004FF6FF7025E00122196862F30821196006
:1006A00003F214010A68C2F3402111B14FF6FF7042
:1006B00017E025461C4615492046FFF7FDFD78B991
:1006C0001149096859B135B906200B4C2468A04777
:1006D0004FF6FF7005E0691E08460546FFE7EAE7AA
:1006E0000020DDF800E003B0704700BF0054004078
:1006F0003C000020D8000020D4000020005800401A
:1007000040000020DC000020440000200100030025
:1007100081B00168C1F3801001B0704781B0194900
:1007200000EA0101084600220EE0042022E0082031
:1007300020E010201EE020201CE040201AE0802055
:1007400018E040F2001015E00F498842EDD00F4943
:100750008842ECD00E498842EBD00E498842EAD05C
:100760000D498842E9D00D498842E8D00C498842B9
:10077000E7D010460B49096841EA000209490A60BE
:1007800001B0704700FCFFFF00080140000C014071
:10079000001001400014014000180140001C0140FD
:1007A000002001401810024081B00168C1F34010E0
:1007B00001B0704781B0CDF800E00348FFF7F4FFC7
:1007C000DDF800E001B070470038014081B0CDF89D
:1007D00000E008B413460A46C1B20448FFF706FE1B
:1007E00001B0DDF800E001B0704700BF00540040E8
:1007F00081B0CDF800E008B413460A46C1B20448FF
:10080000FFF7F4FD01B0DDF800E001B0704700BF74
:100810000058004081B0CDF800E00348FFF712FF18
:10082000DDF800E001B070470054004081B0CDF821
:1008300000E00348FFF7FAFEDDF800E001B0704782
:100840000038014081B0CDF800E00348FFF7FAFE20
:10085000DDF800E001B070470058004081B0CDF8ED
:1008600000E00348FFF754FFDDF800E001B07047F7
:100870000050004081B0CDF800E00348FFF748FF8A
:10088000DDF800E001B070470038014081B0CDF8DC
:1008900000E00348FFF73CFFDDF800E001B07047DF
:1008A0000048004081B0CDF800E00348FFF77CFF2E
:1008B000DDF800E001B070470048004081B0CDF89D
:1008C00000E00348FFF7B2FEDDF800E001B070473A
:1008D000004C004081B0CDF800E00348FFF718FF5E
:1008E000DDF800E001B07047004C004081B0CDF869
:1008F00000E00348FFF758FFDDF800E001B0704763
:10090000004C004081B0CDF800E00348FFF78EFEB8
:10091000DDF800E001B070470048004081B0CDF83C
:1009200000E00348FFF740FFDDF800E001B070474A
:100930000050004081B0CDF800E00348FFF776FE9C
:10094000DDF800E001B070470044004081B0CDF810
:1009500000E00348FFF76AFEDDF800E001B07047F1
:100960000050004081B0CDF800E00348FFF7D0FE12
:10097000DDF800E001B070470044004081B0CDF8E0
:1009800000E00348FFF710FFDDF800E001B070471A
:100990000044004081B0ADF800100146BDF80000F1
:1009A0000B68C3F3C01202B9FAE70A1D106001B068
:1009B0007047FFFF81B0CDF800E08CB21546774B51
:1009C00000EA03031E461846FFF7A8FEB4F1FF0F26
:1009D0000CD1734B9D4203D14FF033333360D9E0D8
:1009E000422D03D14FF044333360D3E04FF6FF7311
:1009F0009C4214D16A4B9D4207D14FF03333336090
:100A0000341D4FF033332360C4E0422D07D14FF043
:100A100044333360341D4FF044332360BAE0002187
:100A2000002005F001030BB100211DE005F00203D9
:100A300033B105F4C0730BB1082100E0042113E0C9
:100A400005F0040333B105F020030BB1042100E0ED
:100A5000002109E005F0080333B105F020030BB1D4
:100A60000C2100E00821FFE74E4B05EA03030BB120
:100A7000032009E005F400730BB1022004E005F443
:100A800080630BB10120FFE705F00C030BB10143BC
:100A9000FFE704F0FF039BB2002B3BD03768002038
:100AA0001FFA84F832462E4608282CD24FF0010354
:100AB00003FA00F408EA0403A34222D185004FF0B0
:100AC0000F03AB40DB4307EA030401FA05F344EAF2
:100AD00003031D4606F48173B3F5817F05D102F24D
:100AE00014044FF001038340236006F08203822B3D
:100AF00005D102F210044FF00103834023602F461A
:100B0000FFE7401CD0E717601FFA88F00F46314618
:100B1000164602E00F462946A0B2B0F1FF0F39D9C0
:100B2000331DD3F800800022082A30D202F20804D4
:100B30004FF0010303FA04F400EA0403A34224D1B2
:100B400095004FF00F03AB40DB4308EA030807FAB8
:100B500005F348EA030801F48173B3F5817F07D1F7
:100B600006F2140502F208044FF00103A3402B60C3
:100B700001F08203822B07D106F2100502F208046D
:100B80004FF00103A3402B60FFE7521CCCE7331D5D
:100B9000C3F80080DDF800E001B0704700FCFFFF03
:100BA000140008000008080088B0CDF800E00E46E8
:100BB000554B98420DD1012464B2544B1C60544CE7
:100BC000544B1C60544C554B1C60554C554B1C6091
:100BD0000FE0554B98420CD1012464B2534B1C607A
:100BE000534C4C4B1C60534C4C4B1C60524C4D4B6B
:100BF0001C60019602901046FFF770FB0298019E60
:100C0000031D1B689CB26FF03F0304EA03039DB20F
:100C100003AB01901846FFF7B5FC0198059F059CB2
:100C2000464BB4FBF3F399B29BB245EA0304A4B27A
:100C3000031D1C600024036864F3000303600022AA
:100C40003F4B9E4212D87300B7FBF3F4A4B2042CBE
:100C500002D204231C46FFE742EA04039AB200F2E0
:100C600020044B1C9BB2236091B23FE0032306FBA0
:100C700003F4B7FBF4F31FFA83F8192306FB03F51B
:100C8000B7FBF5F31FFA83F908FB04F409FB05F33E
:100C90003C1BFB1A9C4205D203237343B7FBF3F4BE
:100CA000A4B206E019237343B7FBF3F4A4B244F4EF
:100CB000804440F6FF7304EA030313B944F00104CF
:100CC000FFE744F400439BB21A4392B200F22005BE
:100CD00040F22C1301FB03F4A4B240F2E833B4FB5E
:100CE000F3F39BB25B1C9BB22B6091B200F21C032E
:100CF0001960002303600124036864F300030360A8
:100D0000DDF800E008B0704700540040D4034242D0
:100D100015080000E0000020FFFFFFFFE4000020B6
:100D2000CD070000E800002000580040D8034242F0
:100D300045080000FFFFFFFFF107000040420F00E1
:100D4000A086010089B0CDF800E0834698B28C46B9
:100D5000BDF824100A9E04ACADF80410ADF80800EC
:100D60002046FFF70FFCBDF80800BDF80410644CE6
:100D7000A34512D101256DB2624C2560624D634CD2
:100D80002560634D634C2560634D644C2560644D64
:100D9000644C2560079C039456E0634CA34512D134
:100DA00001256DB2614C2560614D584C2560614D47
:100DB000584C2560604D594C2560604D594C25605C
:100DC000069C039440E05E4CA34512D101256DB210
:100DD0005C4C25605C4D4D4C25605C4D4D4C256058
:100DE0005B4D4E4C25605B4D4E4C2560069C03943C
:100DF0002AE0594CA34512D101256DB2574C25600C
:100E0000574D424C2560574D424C2560564D434C42
:100E10002560564D434C2560069C039414E0544CC9
:100E2000A34511D101256DB2524C2560524D374C6E
:100E30002560524D374C2560514D384C2560514D41
:100E4000384C2560069C0394ADF80410ADF80800FA
:100E50003046FFF743FABDF80800BDF804100BF167
:100E6000100500242C600BF110052C680C432C603D
:100E70000BF10C0500242C6018B140F4806080B2A6
:100E8000FFE70BF10C052C6804432C600BF10C06FA
:100E90000125346865F34D3434600BF10C060125EF
:100EA000346865F3C30434600BF10C060125346823
:100EB00065F3820434600BF1140500242C60039D5B
:100EC000192465434FEA8C04B5FBF4F76424B7FB9F
:100ED000F4F42601350964246C433C1B240104F21C
:100EE00032056424B5FBF4F404F00F0446EA04046C
:100EF0000BF10805A4B22C60DDF800E009B07047E2
:100F00000038014038034242D9100000EC000020B4
:100F10002D080000F0000020B5070000F4000020BC
:100F200075080000F800002000440040C40342425D
:100F300085110000350900007D09000065090000E9
:100F400000480040C8034242691100000509000042
:100F5000A50800008D080000004C0040CC03424270
:100F6000A1110000BD080000ED080000D508000038
:100F700000500040D0034242C91100004D0900005A
:100F80001D0900005D08000001480068704700BFAF
:100F90003481224201480068704700BF100121429D
:100FA00001480068704700BF0801224201480068FC
:100FB000704700BF2801224201480068704700BF07
:100FC0000001214201480068704700BF2881224289
:100FD00001480068704700BF2C01224201480068A8
:100FE000704700BF3001224282B0CDF800E040F2ED
:100FF0000004ADF80440054C2468A047BDF9044046
:10100000044320B2DDF800E002B07047B4000020D5
:1010100081B0CDF800E0019D2C4610B408B493B225
:101020008AB201460348FFF78DFE02B0DDF800E00A
:1010300001B070470038014081B0CDF800E0044AAB
:1010400089B2FFF7B7FCDDF800E001B0704700BFE0
:101050001400080081B0CDF800E0019D2C4610B4CA
:1010600008B493B28AB201460348FFF76BFE02B0A0
:10107000DDF800E001B070470044004081B0CDF8D9
:1010800000E00A4601460348FFF78EFDDDF800E068
:1010900001B070470054004081B0CDF800E0019DE0
:1010A0002C4610B408B493B28AB201460348FFF745
:1010B00049FE02B0DDF800E001B070470048004092
:1010C00081B0CDF800E04FF0420289B2FFF772FC28
:1010D000DDF800E001B0704781B0CDF800E081B2EA
:1010E0000348FFF757FCDDF800E001B0704700BF90
:1010F0000038014082B0CDF800E040F20004ADF8C5
:101100000440064C2468A047BDF9041041EA0000E1
:1011100000B2DDF800E002B0704700BFC40000205C
:1011200001480068704700BF2481224201480068DE
:10113000704700BF1481224201480068704700BF19
:101140001881214201480068704700BF188122427F
:1011500001480068704700BF3081224201480068A2
:10116000704700BF2C81224281B0CDF800E081B2EF
:101170000348FFF70FFCDDF800E001B0704700BF47
:101180000048004081B0CDF800E081B20348FFF78D
:1011900001FCDDF800E001B0704700BF00440040F2
:1011A00081B0CDF800E081B20348FFF7F3FBDDF832
:1011B00000E001B0704700BF004C004001480068EB
:1011C000704700BF1C81214281B0CDF800E081B2A0
:1011D0000348FFF7DFFBDDF800E001B0704700BF18
:1011E0000050004001480068704700BF0C012242D7
:1011F00001480068704700BF3881224201480068FA
:10120000704700BF1881214201480068704700BF45
:101210001401214201480068704700BF1C8121422F
:1012200001480068704700BF2081224201480068E1
:10123000704700BF3001224201480068704700BF7C
:101240002801224201480068704700BF2C01224259
:1012500081B0CDF800E0016808460449FFF70EFFB1
:101260000020DDF800E001B0704700BF042200005C
:1012700081B00A46014600200D4611460A2805D2D3
:101280000B1820221A70401C80B2F7E70B180022BE
:101290001A70401E80B20C180A23B5FBF3F203FB50
:1012A0001252303222700A22B5FBF2F2154602B910
:1012B00002E0401E80B2EEE701B0704781B0CDF889
:1012C00000E0034C2468A047DDF800E001B070475F
:1012D000B800002081B0CDF800E0A9E0012905D1D7
:1012E00040F210016548FFF7EBFE04E040F2100108
:1012F0006248FFF7A1FEBBE0012905D140F20401DD
:101300005F48FFF7DDFE04E040F204015C48FFF7B0
:1013100093FEADE0012905D142F200015948FFF7E3
:10132000CFFE04E042F200015648FFF785FE9FE041
:10133000012905D140F200415148FFF7C1FE04E008
:1013400040F200414E48FFF777FE91E0012905D1B8
:1013500040F600014A48FFF7B3FE04E040F6000102
:101360004748FFF769FE83E0012905D141F20001FA
:101370004348FFF7A5FE04E041F200014048FFF7B3
:101380005BFE75E0012905D140F201013B48FFF702
:1013900097FE04E040F201013848FFF74DFE67E098
:1013A000012905D140F200413648FFF789FE04E0EB
:1013B00040F200413348FFF73FFE59E0012905D1D3
:1013C00040F200212F48FFF77BFE04E040F20021AD
:1013D0002C48FFF731FE4BE0012905D140F2001106
:1013E0002848FFF76DFE04E040F200112548FFF7A2
:1013F00023FE3DE0012905D140F240012248FFF7DC
:101400005FFE04E040F240011F48FFF715FE2FE0A9
:10141000012905D140F280011B48FFF751FE04E08D
:1014200040F280011848FFF707FE21E0012020E08C
:1014300000283FF453AF01283FF45EAF02283FF489
:1014400069AF03283FF474AF04283FF47FAF052849
:101450003FF48AAF06283FF495AF0728A0D00828AC
:10146000ACD00928B8D00A28C4D00B28D0D0DDE7EA
:101470000020DDF800E001B0704700BF0008014027
:101480000010014000140140000C014081B0CDF873
:1014900000E0A9E0012905D140F220016548FFF7ED
:1014A0000FFE04E040F220016248FFF7C5FDBBE0FB
:1014B000012905D140F208015F48FFF701FE04E071
:1014C00040F208015C48FFF7B7FDADE0012905D106
:1014D00044F200015948FFF7F3FD04E044F2000133
:1014E0005648FFF7A9FD9FE0012905D140F20041D0
:1014F0005148FFF7E5FD04E040F200414E48FFF798
:101500009BFD91E0012905D140F600014A48FFF713
:10151000D7FD04E040F600014748FFF78DFD83E06A
:10152000012905D141F200014348FFF7C9FD04E05C
:1015300041F200014048FFF77FFD75E0012905D128
:1015400041F200013D48FFF7BBFD04E041F200011C
:101550003A48FFF771FD67E0012905D140F6000127
:101560003648FFF7ADFD04E040F600013348FFF7D1
:1015700063FD59E0012905D140F240012F48FFF7F2
:101580009FFD04E040F240012C48FFF755FD4BE081
:10159000012905D140F220012848FFF791FD04E020
:1015A00040F220012548FFF747FD3DE0012905D124
:1015B00040F240012248FFF783FD04E040F2400181
:1015C0001F48FFF739FD2FE0012905D140F28001C6
:1015D0001B48FFF775FD04E040F280011848FFF753
:1015E0002BFD21E0012020E000283FF453AF01282B
:1015F0003FF45EAF02283FF469AF03283FF474AFB5
:1016000004283FF47FAF05283FF48AAF06283FF453
:1016100095AF0728A0D00828ACD00928B8D00A2850
:10162000C4D00B28D0D0DDE70020DDF800E001B009
:10163000704700BF00080140001001400014014045
:10164000000C014081B0CDF800E0034C2468A047B5
:10165000DDF800E001B07047C000002081B0CDF897
:1016600000E0016808460449FFF708FD0020DDF8A6
:1016700000E001B0704700BF04220000014908608B
:10168000704700BF8C01224201490860704700BFCB
:10169000B881224201490860704700BF940121428D
:1016A00001490860704700BF9881214201490860E4
:1016B000704700BF9C81214201490860704700BF0C
:1016C000A801224201490860704700BFAC81224254
:1016D00001490860704700BF9881224201490860B3
:1016E000704700BFB081224201490860704700BFC7
:1016F000AC01224201490860704700BFB00122429C
:1017000001490860704700BFA0812242014908607A
:10171000704700BF8801224201490860704700BF3E
:10172000B481224201490860704700BF9001214204
:10173000026806490A60011D0A6805490A6000F24C
:1017400008010A6803490A60704700BFC40000200E
:10175000B4000020CC00002000F230031A680B49CE
:101760000A6003F208010A6809490A6003F21C01D1
:101770000A6808490A60011D0A6807490A6000F200
:1017800018010A6805490A60704700BFB8000020C8
:10179000C0000020BC000020C8000020B0000020D5
:1017A00001490860704700BFA80122420149086052
:1017B000704700BFA881224201490860704700BFFE
:1017C000A481224201490860704700BF8001214284
:1017D00001490860704700BFAC012242014908601E
:1017E000704700BFB001224201490860704700BF46
:1017F0009C812142A08601004DF2BF47C0F2010743
:101800007F1EFDD100BF00BF00BF00BF00BF7047FB
:1018100001490860704700BF9881214281B0CDF82E
:1018200000E0094902B440F2000340F2000240F235
:101830000001FFF70FFC01B0044A05490A600020CF
:10184000DDF800E001B07047702200008511000053
:10185000AC00002081B0CDF800E0094902B440F2AC
:10186000000340F2000240F20001FFF7D1FB01B09B
:10187000044A05490A600020DDF800E001B0704725
:1018800098210000D9100000AC00002081B0CDF8F4
:1018900000E0094902B440F2000340F2000240F2C5
:1018A0000001FFF7D7FB01B0044A05490A60002098
:1018B000DDF800E001B070477022000085110000E3
:1018C000AC00002082B0CDF800E001AA1070521CDC
:1018D0001170FFF70FFC01AB054A1278194601237E
:1018E000D0B20222FFF780FBDDF800E002B07047C3
:1018F0003700002081B0CDF800E00178CCB2A0B272
:10190000034C2468A0470020DDF800E001B07047D8
:10191000AC00002081B0CDF800E0094902B440F2EB
:10192000000340F2000240F20001FFF7B5FB01B0F6
:10193000044A05490A600020DDF800E001B0704764
:101940002C21000069110000AC0000200149086052
:10195000704700BF9481224281B0CDF800E00E466E
:1019600000210346002804DA0121404200468FB2DC
:1019700001E018468FB23146FFF77AFC0B2134465E
:10198000B8B2002908D963184A1E92B2A218127878
:101990001A70491E89B2F4E72022227070B100202B
:1019A00081B2204642181278202A02D1491C89B2FD
:1019B000F8E74A1E92B283182D221A70DDF800E073
:1019C00001B0704781B0CDF800E000F20902D0B25A
:1019D000FFF778FFDDF800E001B070470204060869
:1019E00042F6DF67C0F200077F1EFDD100BF00BFD7
:1019F00000BF00BF00BF704781B0CDF800E03028C5
:101A000003D13F20FFF75EFF01E0FFF75BFFDDF84A
:101A100000E001B07047FFFF81B0CDF800E000208A
:101A2000094C2468A047FFF7E7FE0120064C246814
:101A3000A047FFF7E1FEFF214020FFF743FFDDF85D
:101A400000E001B0704700BFC800002081B0CDF8B1
:101A500000E011E00846FFF75DFF16E00846FFF7DB
:101A6000DDFE12E00846FFF7F5FE0EE00846FFF740
:101A70000DFF0AE0012008E00028EBD00128EDD09E
:101A80002028EFD03028F1D0F4E7DDF800E001B0F5
:101A90007047FFFF81B0CDF800E0034C2468A047F9
:101AA000DDF800E001B07047BC00002081B0CDF847
:101AB00000E00446054B1A700846FFF739FE204641
:101AC000FFF74AFEDDF800E001B070473700002064
:101AD00081B0CDF800E0402803D13F20FFF7F2FEAF
:101AE00001E0FFF7EFFEDDF800E001B07047FFFF17
:101AF00081B0CDF800E0034C2468A047DDF800E099
:101B000001B07047B000002084B0CDF800E0029032
:101B10000391FFF7D3FBC1B28DF80410FFF792FDDC
:101B20009DF80410C4B281420AD10023184A1370F0
:101B300011B10CB1012300E00023164A13701EE01E
:101B40000123154A1370124A1278012A17D0012373
:101B50000F4A1370FFF7B2FB0E4A1278824207D188
:101B60000E4B1A68521C1A600123039A137006E088
:101B70000A4B1A68521E1A600223039A1370074A0E
:101B80001368029A1360DDF800E004B0704700BFEC
:101B90001B00002035000020360000203800002007
:101BA00001490860704700BF3800002081B0CDF8BF
:101BB00000E05FFA81F95FFA82FA0FE05FFA8AF1DA
:101BC0005FFA89F0FFF786FB0DE05FFA8AF15FFAB2
:101BD00089F0FFF75BFC06E0012004E00028EDD06F
:101BE0000128F2D0F8E7DDF800E001B07047FFFF10
:101BF00081B0CDF800E08B4609E05846FFF72EFD96
:101C00000AE05846FFF724FB06E0012004E0002824
:101C1000F3D00128F5D0F8E7DDF800E001B0704717
:101C200083B0CDF800E0024610460D228DF8082062
:101C30000A228DF809201FE0FFF75CFE23E00278FE
:101C40002AB10190FFF756FE0198401CF7E71AE011
:101C500002782AB10190FFF74DFE0198401CF7E78A
:101C600002AA1046FFF746FE0DF109021046FFF7E3
:101C700041FE08E0062007E00029DDD00129DED082
:101C80000229E5D0F6E70020DDF800E003B0704758
:101C900081B0CDF800E070220F491048FFF706FF31
:101CA000FFF7BAFE4EF67F67C0F2360700BF00BFEF
:101CB0007F1EFDD100BF00BF00BF0020FFF718FF4F
:101CC000FF214020FFF704FF0120FFF769FFDDF847
:101CD00000E001B0704700BF94230000DC22000048
:101CE00081B01548006840F00101134801601349B4
:101CF0001348016010480168124801400E48016015
:101D00000D4801686FF4802001400B4801600C48C9
:101D100001686FF4FE00014009480160064801684F
:101D20006FF0A0500140044801604FF000010648E8
:101D3000016001B0704700BF001002400000FFF0DA
:101D400004100240FFFFF6FE2C100240FFFFFFFFD1
:101D500081B0CDF800E05B495B48FFF7D5FEFFF7A7
:101D600099FEC0B959490878401CC0B208700328D0
:101D700002D300215548017000213020FFF73CFEBE
:101D80004EF67F67C0F236077F1EFDD100BF00BF51
:101D900000BF00BF00BF4E4801684B480068884242
:101DA0000CD0494800684B49FFF7D6FD4A4801214D
:101DB000FFF736FF02214748FFF732FF424801682C
:101DC000434801606BE045490878401CC0B2087088
:101DD0007F2802D900214148017040480078C1B2F3
:101DE0003020FFF709FE4BF61F77C0F2020700BF55
:101DF00000BF7F1EFDD100BF00BF00BF5DE03248C5
:101E00000068182802DD0120FFF7CAFE2E4800688E
:101E1000012802DA1820FFF7C3FE2A4800780128BB
:101E20000CD129480068FF21FFF7CCFD2648006847
:101E3000401E0021C0B2FFF7C5FD0BE0224800683C
:101E4000FF21FFF7BFFD20480068401C0021C0B201
:101E5000FFF7B8FDFFF7C4FD2FE01B480068182806
:101E600002DD0120FFF79CFE17480068012802DA16
:101E70001820FFF795FE13480078012805D1124875
:101E80000068FF21FFF79EFD06E00F480068401C38
:101E90000021C0B2FFF796FDFFF7A2FD0DE00B4851
:101EA000007800283FF48FAF0848007801283FF4FD
:101EB000A6AF064800780228CFD0DDF800E001B0D8
:101EC000704700BF190000201400002018000020F7
:101ED0001C00002048000020200000201A000020E4
:101EE00081B01CF8019B0BF8019BBBEB0A0FF8D1EA
:101EF00001B0704781B04FF000094FF0000CBDEB0E
:101F00000A0F04DCBDEB0B0F01DBD446EA464BF8AD
:101F1000049BBBEB0A0FFAD1BCEB0A0F05DDE246CE
:101F2000D9F800B00BF1040BF1E701B07047FFFFE7
:101F300081B0CDF800E0012207210020FFF736FE36
:101F4000012200210020FFF731FE012202210020A2
:101F5000FFF72CFE002201210020FFF727FE0022C0
:101F600006210020FFF722FE0E4801460020FFF761
:101F70003FFE42F280512020FFF768FD0A4802210F
:101F8000FFF74EFE44F67F77C0F2120700BF00BF96
:101F90007F1EFDD100BF00BF00BFDDF800E001B033
:101FA000704700BFF41700000000002081B0024914
:101FB0000248016001B0704740190100D0000020C4
:101FC00081B0FEE701B0704700F00EF800F044FA6F
:101FD000FFF7ECFF00F0E4F9FFF7AAFFFFF758FE68
:101FE000FFF7B6FEFCE7FEE781B0CDF800E0464A19
:101FF000464B474C47494BF68030814206D946480C
:10200000006840F002014448016011E045F6C0500C
:10201000814206D94048006840F001013E48016015
:1020200006E03D4801686FF0070001403A48016052
:10203000FFF756FE3948036039480460394802EA20
:1020400000013948016002F0010040B119463648EC
:10205000006800F00200002800D1F8E700E019460F
:1020600002F4803040B10B462F48006800F4003085
:10207000002800D1F8E700E00B4602F0805068B17C
:102080002948006840F080512748016026480068D0
:1020900000F00050002800D1F8E7FFE702F0806070
:1020A00078B12148006840F080611F480160114606
:1020B0001A461D48006800F00060002800D1F8E7CB
:1020C00001E011461A4601F0807070B116480068B0
:1020D00040F080711448016011461348006800F018
:1020E000007000B9F9E70A46FFE70C48006800F005
:1020F0000C01900000F00C00814200D0F5E7DDF803
:1021000000E001B0704700BF8100010502841D009E
:102110004406010040190100002002400410024062
:102120002C100240FFFF0F0000100240380000009A
:1021300039000000FFFFFFFF00000000000000006A
:10214000000000000000000000000000000000008F
:10215000000000000000000000000000000000007F
:102160001808000018000000000000000000000037
:10217000000000000000000000000000000000005F
:10218000000000000000000000000000000000004F
:102190000000000030001408090000000A000000E0
:1021A000FFFFFFFF00000000000000000000000033
:1021B000000000000000000000000000000000001F
:1021C00000000000000000000000000018080000EF
:1021D00018000000000000000000000000000000E7
:1021E00000000000000000000000000000000000EF
:1021F00000000000000000000000000000000000DF
:10220000040000001600000017000000FFFFFFFFA1
:1022100000000000000000000000000000000000BE
:1022200000000000000000000000000000000000AE
:10223000000000000000000028080000280800003E
:10224000000000000000000000000000000000008E
:10225000000000000000000000000000000000007E
:10226000000000000000000000000000020000006C
:102270003500000036000000FFFFFFFF00000000F7
:10228000000000000000000000000000000000004E
:10229000000000000000000000000000000000003E
:1022A00000000000180800001800000000000000F6
:1022B000000000000000000000000000000000001E
:1022C000000000000000000000000000000000000E
:1022D00000000000000000000800000825170000B2
:1022E0000D17000019170000A1170000D1170000FA
:1022F000DD170000C5170000AD170000B91700007A
:1023000001170000A1160000AD160000950F000097
:10231000A10F0000890F0000AD0F0000D10F0000D9
:10232000DD0F0000B90F0000C50F000021110000F3
:1023300021120000FD110000151200002D2D2D208E
:1023400053797374656D20496E6974202D2D2D00AD
:102350000000000000FFFFFF0000000020456E436A
:102360006F64657220706F736974696F6E203A20B4
:1023700000FFFFFF00000000000000000000000060
:102380000000000000000000010203040102030439
:102390000607080915080000CD070000FFFFFFFF32
:1023A00000B5DFF834B0DFF834A0DFF834C0FFF751
:1023B00097FDDFF830B0DFF830A0DFF830C0FFF76E
:1023C0008FFDDFF82CB0DFF82CA0DFF82CC0FFF772
:1023D00087FD00BD704700BF0000002019000020ED
:1023E0003C2300001C000020350000205823000082
:1023F000380000204800002074230000FFFFFFFF8A
:10240000FFFFFFFFFFFFFFFFFFFFFFFFFFFFFFFFDC
:10241000FFFFFFFFFFFFFFFFFFFFFFFFFFFFFFFFCC
:10242000FFFFFFFFFFFFFFFFFFFFFFFFFFFFFFFFBC
:10243000FFFFFFFFFFFFFFFFFFFFFFFFFFFFFFFFAC
:10244000FFFFFFFFFFFFFFFFFFFFFFFFFFFFFFFF9C
:10245000FFFFFFFFFFFFFFFF00B5DFF810B0DFF861
:1024600010A0FFF747FD00BD704700BF000000202F
:10247000FC000020FFFFFFFFFFFFFFFFFFFFFFFF4C
:00000001FF
